:0E0000000C943E000C9400000C9400000C9434
:10000E0000000C9400000C9400000C9400000C9462
:10001E0000000C9400000C9400000C9400000C9452
:10002E0000000C9400000C9400000C9400000C9442
:10003E0000000C9400000C9400000C9400000C9432
:10004E0000000C9400003F0006005B004F006600AD
:10005E006D00FD0007007F006F0001002D4E414E28
:10006E0000494E4600000100600168000000F8944F
:10007E00EE27ECBBF1E0FBBFEBBFE5BF8DE0A2E0EE
:10008E00BB27ED938A95E9F780E094E0A0E6ED9327
:10009E000197E9F7E4E7F0E085919591009761F01B
:1000AE00A591B59105901590BF01F00105900D92A7
:1000BE000197E1F7FB01F0CFEFE5EDBFE4E0EEBF16
:1000CE00C0E6D1E00C94F900AA93E881EE0FAE2FB2
:1000DE00E881EE1FE0E0EE1FEA2B219608950E94C4
:1000EE00DB020F5F1F4F0E94E2020E94EA02AA810A
:1000FE00BB810E94F2020E94BB03662777270E94F3
:10010E0096057CF3F801198108810C946F01BA935E
:10011E00AA930E94A90500E010E02885398540E0E9
:10012E0050E0A885B985DBDF8F01EE81FF810E17C8
:10013E001F073CF10E94E20231970E94EA02DF01A2
:10014E00CB010E946401D9010E94F2020E94F902C1
:10015E00AF010E94E20231970E94EA02DF01CB0159
:10016E000E9464010E94BB0366277727D9010E9473
:10017E0058050E9400030E94F9029F010150104091
:10018E00D4CFE42F0E94B0050C94EF010E94DB0245
:10019E00EEEFE2BBAA81BB81A2DF8F010024001625
:1001AE000106E4F4EA81FB81FA93EA93D801AFDF0A
:1001BE00A4E5B0E0F0E0EE0FFF1FEA0FFB1F049086
:1001CE0005BAA1E0B0E00E945F03E2B3AE2F7CDF80
:1001DE00E2BBE0E0E5BB01501040E0CF19810881A1
:1001EE000C946F01E0E0EABBEBBBE7BBE8BBEFEFC3
:1001FE00E4BBE0E0E5BBEFEFE1BBE0E0E2BBE3BF79
:10020E00E2BFECBFEFBDEEBDEDBDECBDE7BDE6BDA3
:10021E00EBBDEABDE9BDE8BDE2BDE5BDE4BDE3BDB4
:10022E00E9BFE5BFE4BFEAB9E0E8E8B9E0E0E0BF66
:10023E00E6B9EDB9E6BFA2EDB4E0A8DFFCCFFFCF83
:10024E000E947F057B816A81F981E88177FB770FB8
:10025E0067FD7160972F9E5781F078F0983190F47A
:10026E00AA27BB27882708948795B795A7959A95AF
:10027E00D1F7EA23FB23682305C0E8947727EE27FE
:10028E00FF2766276F77769508F4606877F9A9914E
:10029E00B99189919991EA17FB076807790797FB3E
:1002AE0008950E94050319F40E940E0311C0E6F78B
:1002BE000E9411030E9425040BC00E94050319F42D
:1002CE000E940E0305C0E6F30E9411030E942C0447
:1002DE00249608950E947F0524971A930A930E94EC
:1002EE0017030E949E052CF0EFEFFFEF6FE77FEFF5
:1002FE006DC00E941C030E947A05ADB7BEB7119760
:10030E001F930F930E9469030F911F910E94210367
:10031E000E941703E3EFF4E065E37FE30E940F050D
:10032E0040F40E9426030E942C040E9421030150D7
:10033E0010400E9428030E9425047F936F93FF9321
:10034E00EF930E9428030E942C04AF91BF918F91CE
:10035E009F910E94CA040E9421030E9426030E94BC
:10036E002E03A6E2B2E485E69FE30E943503EEE497
:10037E00F1E164E570E40E943A030E9417030E94C3
:10038E007C047F936F93FF93EF930E943F03ADE442
:10039E00B1E184ED9FE30E942504AF91BF918F914F
:1003AE009F910E94CA047F936F93FF93EF93F8017E
:1003BE000E940003A8E1B2E781E39FE30E947C0460
:1003CE00AF91BF918F919F910E942C04198108814A
:1003DE002A9608950E947F0528971A930A930E94E1
:1003EE004403E0E5FCEA6EEA72EC0E940F0518F495
:1003FE000E94490383C0EA85FB856C857D850E943A
:10040E009A0529F4E0E0F0E060E87FE377C00E940F
:10041E004403E8E1F2E761EB72E40E940F0509F094
:10042E0008F405C0EFEFFFEF6FE77FE767C00E94AC
:10043E004403EBE3FAEA68EB7FE30E947C04EA876D
:10044E00FB876C877D870E9444032BDF0E94BB03D2
:10045E008F010E9444030E9400030E943A03DF01B1
:10046E00CB01E0E0F0E060E07FE30E943A030E94FF
:10047E0021030E9426030E942E03ADE6BCE48CE607
:10048E009DE30E947C04A6EAB3EE86EE90E40E9401
:10049E002C040E9417030E947C040E9421030E94D8
:1004AE003F03A8E2BDE886EA91E40E942C04EA83A9
:1004BE00FB836C837D830E941C03AA81BB818C818C
:1004CE009D810E942C04A3EFB4E085EB9FE30E9474
:1004DE007C047F936F93FF93EF930E9417030E9408
:1004EE003F030E942504AF91BF918F919F910E946F
:1004FE00CA040E947A05D8010E947A0319810881E4
:10050E002E9608950E947F0524970E944E030E9406
:10051E009A0519F40E94490345C0A885B9858A85B4
:10052E009B850E949E0594F40E9453030E949A0597
:10053E0029F4E0E0F0E060E87FE334C0A885B985F7
:10054E008A859B850E94580345DF2CC00E94530369
:10055E00DE010E94BB030E9466050E940E030E94EC
:10056E00F203DF01CB010E9453030E94A40519F090
:10057E000E94490317C00E944E030E948603DF01AA
:10058E00CB010E94580326DFE887F9876A877B87AD
:10059E00E881E17019F40E944E0304C00E944E03DC
:1005AE000E9486032C960895BA93AA931A930A93DF
:1005BE0000E010E00895E0E0F0E060E271E40E94F7
:1005CE007A05F80108950E943B050E94F203DF01AF
:1005DE00CB010C9489020E9440050E9486050E9460
:1005EE00CA040895DF01CB010E9458010E94BB038B
:1005FE0008950E943B050E94F20308950E947F0514
:10060E000E9470050E9427010E94750508950E94A0
:10061E006B050895FCDFA0E0B0E080E89FE308954D
:10062E00AE81BF81888599850895EE81FF816885A9
:10063E0079850895EE83FF83688779870895F5DFBE
:10064E00EFCFF3DFA0E0B0E080E89FE308950E94D3
:10065E007C04EA83FB836C837D8308950E947C0473
:10066E00DF01CB0108950E9489050E94250408959B
:10067E00EA81FB816C817D810895AA85BB858C857D
:10068E009D850895E0E0F0E060E070E00895E88573
:10069E00F9856A857B850895EC81FD816E817F8168
:1006AE0008950E947101AC81BD818E819F81D6CF4C
:1006BE00109639F0A89580ED97E00197F1F7119714
:1006CE00C9F70895E991F9916991799177FB660FD0
:1006DE00771F88277E57880B7D938C937EE77695C0
:1006EE0067956EF00895E991F9916991799177FB8B
:1006FE00660F771F7A0F769567950EF008953097EF
:10070E006040704009F070580895552342F45038F7
:10071E0011F4E0FF04C03196691F791F6BF050E8A9
:10072E00572711F45F93CFC05F3F31F0660F000C77
:10073E0057956795752F08955F9300200AF0CFC0E7
:10074E00C8C050E8192E1522880F991F9527550FEE
:10075E00879550E8072E0522660F771F7527550FD0
:10076E0067950895689401C0E8945F93F2DF70383E
:10077E0018F07F3F08F4A7C056E1571BAAF4519515
:10078E0058300EF4593030F0EFEFFFEF6FEF7FE798
:10079E0077F91AC077275523B9F0EE0FFF1F661FA2
:1007AE00771F5A95D1F710C07727583028F0EF2FC2
:1007BE00F62F672F5850F9CF552331F07695679560
:1007CE00F795E7955A95D1F700200AF445D15F9138
:1007DE000895689401C0E894309760407040B1F07D
:1007EE00002426F0772312F4009436D1172E7EE1E2
:1007FE00112032F07A95EE0FFF1F661F111CF9CFF4
:10080E00EF2FF62F612D5F938ADF5F9108954F933F
:10081E00AF01FD01DA01AB01BC01CA01402D012C73
:10082E00142E4F910895EA0FFB1F681F0895E0954F
:10083E00F0956095EF5FFF4F6F4F08955F9381DFE7
:10084E00903871F150E8152604C05F937ADF903826
:10085E0039F1703821F1572F591B2BF112F4D7DFD4
:10086E00FACF583118F0AA27BB278827583028F01E
:10087E00AB2FB82F88275850F9CF552329F08695DE
:10088E00B795A7955A95D9F7502D512572F0CBDF14
:10089E0038F46795F795E795739513F420C0B7DF95
:1008AE003EDF5F910895D8F7FBCFEA1BFB0B680B79
:1008BE0051F010F40094BBDF662392F3EE0FFF1F8E
:1008CE00661F7A95CBF7EE27FF27662777275F916E
:1008DE000895EFEFFFEF6FE77FEF5F910895EFEF72
:1008EE00FFEF6FE77FE75F9108955F932ADF703820
:1008FE0051F3903841F301240894791F23F41CF32B
:10090E0000203AF3ECCF0F921F932F933F934F9308
:10091E00112722279927689FA0018F9F302D410D07
:10092E00591F6B9F300D411D591F8E9F27D0BF9FA2
:10093E0025D06A9F23D0BE9F1DD0AF9F1BD0AE9FE8
:10094E00110D291F391F491F591FE32FF42F652F32
:10095E00522F4F913F912F911F910F9066232AF0A6
:10096E00550FEE1FFF1F661F02C073954BF2CDDEB3
:10097E005F910895100D211D391F02C0200D311DEC
:10098E00491F591F08955F93DCDE703821F4112042
:10099E000AF49FCFA4CF903809F495CF0124089480
:1009AE00970B1BF4D4F30020F3CF792F1F932F93C3
:1009BE003F934F931124112722273327442755277E
:1009CE0090E2AE17BF078607410730F0AE1BBF0B94
:1009DE00860B410B089401C08894551F221F331FAC
:1009EE00111CAA1FBB1F881F441F9A9551F7F901AE
:1009FE00612D4F913F912F911F91662332F0550F2C
:100A0E00EE1FFF1F661F7A9543F27FDE5F910895FA
:100A1E0099239AF0772342F0971748F029F4AE17EE
:100A2E00BF07860720F031F0989488940895989423
:100A3E00089408951894889408957723C2F7971709
:100A4E0098F3A9F7EA17FB07680788F399F3ECCF39
:100A5E00F195E195F0400895F09560957095E195CA
:100A6E00FF4F6F4F7F4F08956F2F660F660B762FD8
:100A7E0008958B2F880F880B982F0895002411242A
:100A8E0090E1AA0FBB1F001C111C0E1A1F0A18F4AE
:100A9E000E0E1F1E01C0A1609A9599F7FD01D0019F
:100AAE000895E894B7FF04C0A095B0951196689488
:100ABE00F7FDCEDFE3DFFD010EF4CADF0895ED93FF
:100ACE00FD936D937C930895E881F9816A817B8112
:100ADE000895A881B9818A819B810895E883F9835D
:100AEE006A837B8308957A936A93FA93EA930895BF
:100AFE009A938A93BA93AA930895689401C0E8943E
:100B0E0001D06ADE182E862F612D192E972F712D8A
:100B1E001B2EBF2FF12D1A2EAE2FE12D089500247E
:100B2E000E160F0608953097604070400895002409
:100B3E000A160B06080609060895EA17FB0768074A
:100B4E00790708955A934A933A932A931A930A93DC
:100B5E0008955D814C813B812A8119810881089518
:00000001FF
