:020000000C945E
:1000020038000C9400000C9400000C9400000C9436
:1000120000000C9400000C9400000C9400000C945E
:1000220000000C9400000C9400000C9400000C944E
:1000320000000C9400000C9400000C9400000C943E
:1000420000000C9400000C9400000C9400000C942E
:1000520000003F0006005B004F0066006D00FD00DF
:1000620007007F006F001300600154000000F89445
:10007200EE27ECBBF1E0FBBFEBBFE5BF8DE0A2E0FA
:10008200BB27ED938A95E9F780E094E0A0E6ED9333
:100092000197E9F7E8E6F0E085919591009761F024
:1000A200A591B59105901590BF01F00105900D92B3
:1000B2000197E1F7FB01F0CFEFE5EDBFE4E0EEBF22
:1000C200C0E6D1E00C948700BA93AA934A805B8081
:1000D200E881F981E415F5052CF0EAE0F0E04E162E
:1000E2005F060CF011C0F201A0E6B1E0EE0FFF1FB7
:1000F200AE0FBF1FEC91E5BBA8EEB3E00E94B700C4
:10010200F20131962F01E4CF24960895E0E0EABB94
:10011200EBBBE7BBE8BBEFEFE4BBE0E0E5BBE1BB79
:10012200E2BBE3BFE2BFECBFEFBDEEBDEDBDECBD98
:10013200E7BDE6BDEBBDEABDE9BDE8BDE2BDE5BD9B
:10014200E4BDE3BDE9BFE5BFE4BFEAB9E0E8E8B971
:10015200E0E0E0BFE6B9EDB9E6BFE0E0F0E0FA9337
:10016200EA93A9E0B0E0B0DFF8CFFFCF109639F004
:10017200A89580ED97E00197F1F71197C9F70895D7
:00000001FF
